{
  "address": "0x46D7077C20afb3e47E5cdF7c6eEc1D2D312cFBba",
  "abi": [
    {
      "inputs": [
        {
          "internalType": "address",
          "name": "_owner",
          "type": "address"
        }
      ],
      "stateMutability": "nonpayable",
      "type": "constructor"
    },
    {
      "anonymous": false,
      "inputs": [
        {
          "indexed": true,
          "internalType": "address",
          "name": "creator",
          "type": "address"
        },
        {
          "indexed": true,
          "internalType": "uint256",
          "name": "topicId",
          "type": "uint256"
        },
        {
          "indexed": false,
          "internalType": "string",
          "name": "title",
          "type": "string"
        },
        {
          "indexed": false,
          "internalType": "string[]",
          "name": "options",
          "type": "string[]"
        }
      ],
      "name": "TopicCreated",
      "type": "event"
    },
    {
      "anonymous": false,
      "inputs": [
        {
          "indexed": true,
          "internalType": "address",
          "name": "voter",
          "type": "address"
        },
        {
          "indexed": true,
          "internalType": "uint256",
          "name": "topicId",
          "type": "uint256"
        },
        {
          "indexed": false,
          "internalType": "uint256",
          "name": "optionIndex",
          "type": "uint256"
        },
        {
          "indexed": false,
          "internalType": "uint256",
          "name": "value",
          "type": "uint256"
        }
      ],
      "name": "VoteCast",
      "type": "event"
    },
    {
      "inputs": [
        {
          "internalType": "uint256",
          "name": "_topicId",
          "type": "uint256"
        },
        {
          "internalType": "address",
          "name": "_voter",
          "type": "address"
        }
      ],
      "name": "checkHasVoted",
      "outputs": [
        {
          "internalType": "bool",
          "name": "",
          "type": "bool"
        }
      ],
      "stateMutability": "view",
      "type": "function"
    },
    {
      "inputs": [
        {
          "internalType": "string",
          "name": "_title",
          "type": "string"
        },
        {
          "internalType": "string[]",
          "name": "_options",
          "type": "string[]"
        }
      ],
      "name": "createTopic",
      "outputs": [
        {
          "internalType": "uint256",
          "name": "",
          "type": "uint256"
        }
      ],
      "stateMutability": "nonpayable",
      "type": "function"
    },
    {
      "inputs": [
        {
          "internalType": "uint256",
          "name": "_topicId",
          "type": "uint256"
        }
      ],
      "name": "getTopic",
      "outputs": [
        {
          "internalType": "string",
          "name": "title",
          "type": "string"
        },
        {
          "internalType": "string[]",
          "name": "options",
          "type": "string[]"
        },
        {
          "internalType": "uint256[]",
          "name": "voteCounts",
          "type": "uint256[]"
        },
        {
          "internalType": "address",
          "name": "creator",
          "type": "address"
        },
        {
          "internalType": "uint256",
          "name": "totalVotes",
          "type": "uint256"
        }
      ],
      "stateMutability": "view",
      "type": "function"
    },
    {
      "inputs": [],
      "name": "getTopicCount",
      "outputs": [
        {
          "internalType": "uint256",
          "name": "",
          "type": "uint256"
        }
      ],
      "stateMutability": "view",
      "type": "function"
    },
    {
      "inputs": [
        {
          "internalType": "uint256",
          "name": "",
          "type": "uint256"
        },
        {
          "internalType": "address",
          "name": "",
          "type": "address"
        }
      ],
      "name": "hasVoted",
      "outputs": [
        {
          "internalType": "bool",
          "name": "",
          "type": "bool"
        }
      ],
      "stateMutability": "view",
      "type": "function"
    },
    {
      "inputs": [],
      "name": "nextTopicId",
      "outputs": [
        {
          "internalType": "uint256",
          "name": "",
          "type": "uint256"
        }
      ],
      "stateMutability": "view",
      "type": "function"
    },
    {
      "inputs": [],
      "name": "owner",
      "outputs": [
        {
          "internalType": "address",
          "name": "",
          "type": "address"
        }
      ],
      "stateMutability": "view",
      "type": "function"
    },
    {
      "inputs": [
        {
          "internalType": "uint256",
          "name": "",
          "type": "uint256"
        }
      ],
      "name": "topics",
      "outputs": [
        {
          "internalType": "string",
          "name": "title",
          "type": "string"
        },
        {
          "internalType": "address",
          "name": "creator",
          "type": "address"
        },
        {
          "internalType": "uint256",
          "name": "topicId",
          "type": "uint256"
        },
        {
          "internalType": "uint256",
          "name": "totalVotes",
          "type": "uint256"
        }
      ],
      "stateMutability": "view",
      "type": "function"
    },
    {
      "inputs": [
        {
          "internalType": "uint256",
          "name": "_topicId",
          "type": "uint256"
        },
        {
          "internalType": "uint256",
          "name": "_optionIndex",
          "type": "uint256"
        }
      ],
      "name": "vote",
      "outputs": [],
      "stateMutability": "payable",
      "type": "function"
    },
    {
      "inputs": [],
      "name": "withdraw",
      "outputs": [],
      "stateMutability": "nonpayable",
      "type": "function"
    },
    {
      "stateMutability": "payable",
      "type": "receive"
    }
  ],
  "transactionHash": "0x9cb87efccd9e847a619b1c2fa481149d4a3a8e1935398f335ce03ece6225a7b8",
  "args": [
    "0x66C14560010674651DD6B3DF6b99D28C263d461b"
  ],
  "numDeployments": 3,
  "solcInputHash": "321fbef8dcda082f16d433e2196d1550",
  "bytecode": "0x60a0604052600060025534801561001557600080fd5b5060405161117a38038061117a83398101604081905261003491610045565b6001600160a01b0316608052610075565b60006020828403121561005757600080fd5b81516001600160a01b038116811461006e57600080fd5b9392505050565b6080516110dc61009e600039600081816101df01528181610320015261038601526110dc6000f3fe6080604052600436106100955760003560e01c80636ad0ebe2116100595780636ad0ebe21461017c578063716588961461019c5780638da5cb5b146101cd578063b384abef14610219578063cc89698c1461022c57600080fd5b80630f5de4b2146100a157806318d9adab146100ca5780633ccfd60b146100fa578063438596321461011157806350f311dc1461015c57600080fd5b3661009c57005b600080fd5b3480156100ad57600080fd5b506100b760025481565b6040519081526020015b60405180910390f35b3480156100d657600080fd5b506100ea6100e5366004610b5d565b610241565b6040516100c19493929190610bbc565b34801561010657600080fd5b5061010f610315565b005b34801561011d57600080fd5b5061014c61012c366004610bf4565b600160209081526000928352604080842090915290825290205460ff1681565b60405190151581526020016100c1565b34801561016857600080fd5b5061014c610177366004610bf4565b61043f565b34801561018857600080fd5b506100b7610197366004610ce7565b61048d565b3480156101a857600080fd5b506101bc6101b7366004610b5d565b610717565b6040516100c1959493929190610e26565b3480156101d957600080fd5b506102017f000000000000000000000000000000000000000000000000000000000000000081565b6040516001600160a01b0390911681526020016100c1565b61010f610227366004610ea2565b610955565b34801561023857600080fd5b506000546100b7565b6000818154811061025157600080fd5b906000526020600020906006020160009150905080600001805461027490610ec4565b80601f01602080910402602001604051908101604052809291908181526020018280546102a090610ec4565b80156102ed5780601f106102c2576101008083540402835291602001916102ed565b820191906000526020600020905b8154815290600101906020018083116102d057829003601f168201915b505050506003830154600484015460059094015492936001600160a01b039091169290915084565b336001600160a01b037f000000000000000000000000000000000000000000000000000000000000000016146103825760405162461bcd60e51b815260206004820152600d60248201526c2737ba103a34329027bbb732b960991b60448201526064015b60405180910390fd5b60007f00000000000000000000000000000000000000000000000000000000000000006001600160a01b03164760405160006040518083038185875af1925050503d80600081146103ef576040519150601f19603f3d011682016040523d82523d6000602084013e6103f4565b606091505b505090508061043c5760405162461bcd60e51b81526020600482015260146024820152732330b4b632b2103a379039b2b7321022ba3432b960611b6044820152606401610379565b50565b6000805483106104615760405162461bcd60e51b815260040161037990610efe565b5060009182526001602090815260408084206001600160a01b0393909316845291905290205460ff1690565b6000808351116104d75760405162461bcd60e51b81526020600482015260156024820152745469746c652063616e6e6f7420626520656d70747960581b6044820152606401610379565b6002825110156105295760405162461bcd60e51b815260206004820152601c60248201527f4d7573742068617665206174206c656173742032206f7074696f6e73000000006044820152606401610379565b600a8251111561057b5760405162461bcd60e51b815260206004820181905260248201527f43616e6e6f742068617665206d6f7265207468616e203130206f7074696f6e736044820152606401610379565b60028054908190600061058d83610f2c565b9091555050600080546001810182559080526006027f290decd9548b62a8d60345a988386fc84ba6bc95484008f6362f93160ef3e56301806105cf8682610fa2565b506003810180546001600160a01b03191633179055600481018290556000600582018190555b84518110156106ca57600085828151811061061257610612611062565b602002602001015151116106615760405162461bcd60e51b81526020600482015260166024820152754f7074696f6e2063616e6e6f7420626520656d70747960501b6044820152606401610379565b8160010185828151811061067757610677611062565b602090810291909101810151825460018101845560009384529190922001906106a09082610fa2565b506002820180546001810182556000918252602082200155806106c281610f2c565b9150506105f5565b5081336001600160a01b03167f66a7d7fcbbe3b455bf8b9dd40bd7d71390bb66dd9156936f8010abd9d3853bb78787604051610707929190611078565b60405180910390a3509392505050565b606080606060008060008054905086106107435760405162461bcd60e51b815260040161037990610efe565b600080878154811061075757610757611062565b906000526020600020906006020190508060000181600101826002018360030160009054906101000a90046001600160a01b0316846005015484805461079c90610ec4565b80601f01602080910402602001604051908101604052809291908181526020018280546107c890610ec4565b80156108155780601f106107ea57610100808354040283529160200191610815565b820191906000526020600020905b8154815290600101906020018083116107f857829003601f168201915b5050505050945083805480602002602001604051908101604052809291908181526020016000905b828210156108e957838290600052602060002001805461085c90610ec4565b80601f016020809104026020016040519081016040528092919081815260200182805461088890610ec4565b80156108d55780601f106108aa576101008083540402835291602001916108d5565b820191906000526020600020905b8154815290600101906020018083116108b857829003601f168201915b50505050508152602001906001019061083d565b5050505093508280548060200260200160405190810160405280929190818152602001828054801561093a57602002820191906000526020600020905b815481526020019060010190808311610926575b50505050509250955095509550955095505091939590929450565b60005482106109765760405162461bcd60e51b815260040161037990610efe565b3466038d7ea4c68000146109d85760405162461bcd60e51b815260206004820152602360248201527f4d7573742073656e642065786163746c7920302e303031204d4f4e20746f20766044820152626f746560e81b6064820152608401610379565b60008083815481106109ec576109ec611062565b600091825260208083208684526001825260408085203386529092529220546006909102909101915060ff1615610a655760405162461bcd60e51b815260206004820152601b60248201527f416c726561647920766f746564206f6e207468697320746f70696300000000006044820152606401610379565b60018101548210610aaf5760405162461bcd60e51b8152602060048201526014602482015273092dcecc2d8d2c840dee0e8d2dedc40d2dcc8caf60631b6044820152606401610379565b6000838152600160208181526040808420338552909152909120805460ff1916909117905560028101805483908110610aea57610aea611062565b60009182526020822001805491610b0083610f2c565b9091555050600581018054906000610b1783610f2c565b909155505060408051838152346020820152849133917fa23fc440c6fc2e19ce408adc0b47622097fa7ea64409d71d33ba3fcdb5b4cd95910160405180910390a3505050565b600060208284031215610b6f57600080fd5b5035919050565b6000815180845260005b81811015610b9c57602081850181015186830182015201610b80565b506000602082860101526020601f19601f83011685010191505092915050565b608081526000610bcf6080830187610b76565b6001600160a01b03959095166020830152506040810192909252606090910152919050565b60008060408385031215610c0757600080fd5b8235915060208301356001600160a01b0381168114610c2557600080fd5b809150509250929050565b634e487b7160e01b600052604160045260246000fd5b604051601f8201601f1916810167ffffffffffffffff81118282101715610c6f57610c6f610c30565b604052919050565b600082601f830112610c8857600080fd5b813567ffffffffffffffff811115610ca257610ca2610c30565b610cb5601f8201601f1916602001610c46565b818152846020838601011115610cca57600080fd5b816020850160208301376000918101602001919091529392505050565b60008060408385031215610cfa57600080fd5b823567ffffffffffffffff80821115610d1257600080fd5b610d1e86838701610c77565b9350602091508185013581811115610d3557600080fd5b8501601f81018713610d4657600080fd5b803582811115610d5857610d58610c30565b8060051b610d67858201610c46565b918252828101850191858101908a841115610d8157600080fd5b86850192505b83831015610dbd57823586811115610d9f5760008081fd5b610dad8c8983890101610c77565b8352509186019190860190610d87565b809750505050505050509250929050565b600082825180855260208086019550808260051b84010181860160005b84811015610e1957601f19868403018952610e07838351610b76565b98840198925090830190600101610deb565b5090979650505050505050565b60a081526000610e3960a0830188610b76565b602083820381850152610e4c8289610dce565b8481036040860152875180825282890193509082019060005b81811015610e8157845183529383019391830191600101610e65565b50506001600160a01b03969096166060850152505050608001529392505050565b60008060408385031215610eb557600080fd5b50508035926020909101359150565b600181811c90821680610ed857607f821691505b602082108103610ef857634e487b7160e01b600052602260045260246000fd5b50919050565b602080825260149082015273151bdc1a58c8191bd95cc81b9bdd08195e1a5cdd60621b604082015260600190565b600060018201610f4c57634e487b7160e01b600052601160045260246000fd5b5060010190565b601f821115610f9d57600081815260208120601f850160051c81016020861015610f7a5750805b601f850160051c820191505b81811015610f9957828155600101610f86565b5050505b505050565b815167ffffffffffffffff811115610fbc57610fbc610c30565b610fd081610fca8454610ec4565b84610f53565b602080601f8311600181146110055760008415610fed5750858301515b600019600386901b1c1916600185901b178555610f99565b600085815260208120601f198616915b8281101561103457888601518255948401946001909101908401611015565b50858210156110525787850151600019600388901b60f8161c191681555b5050505050600190811b01905550565b634e487b7160e01b600052603260045260246000fd5b60408152600061108b6040830185610b76565b828103602084015261109d8185610dce565b9594505050505056fea2646970667358221220f172b84b07870589aa1c81ef126d42467cb7c172cee9d320afa09edbe63a0dc664736f6c63430008140033",
  "devdoc": {
    "author": "Voting DApp",
    "kind": "dev",
    "methods": {
      "checkHasVoted(uint256,address)": {
        "params": {
          "_topicId": "- The ID of the topic",
          "_voter": "- The address to check"
        },
        "returns": {
          "_0": "- Whether the address has voted"
        }
      },
      "createTopic(string,string[])": {
        "params": {
          "_options": "- Array of voting options",
          "_title": "- The title of the topic"
        },
        "returns": {
          "_0": "topicId - The ID of the created topic"
        }
      },
      "getTopic(uint256)": {
        "params": {
          "_topicId": "- The ID of the topic"
        },
        "returns": {
          "creator": "- Address of the creator",
          "options": "- Array of options",
          "title": "- The title of the topic",
          "totalVotes": "- Total number of votes",
          "voteCounts": "- Array of vote counts for each option"
        }
      },
      "getTopicCount()": {
        "returns": {
          "_0": "count - Total number of topics"
        }
      },
      "vote(uint256,uint256)": {
        "params": {
          "_optionIndex": "- The index of the option to vote for Requires exactly 0.001 MON to vote",
          "_topicId": "- The ID of the topic to vote on"
        }
      }
    },
    "version": 1
  },
  "userdoc": {
    "kind": "user",
    "methods": {
      "checkHasVoted(uint256,address)": {
        "notice": "Check if an address has voted on a topic"
      },
      "createTopic(string,string[])": {
        "notice": "Create a new voting topic"
      },
      "getTopic(uint256)": {
        "notice": "Get topic information"
      },
      "getTopicCount()": {
        "notice": "Get total number of topics"
      },
      "vote(uint256,uint256)": {
        "notice": "Vote on a topic (payable function)"
      },
      "withdraw()": {
        "notice": "Function that allows the owner to withdraw all the Ether in the contract"
      }
    },
    "notice": "Voting DApp Smart Contract Allows users to create voting topics and cast votes with payment",
    "version": 1
  },
  "storageLayout": {
    "storage": [
      {
        "astId": 23,
        "contract": "contracts/YourContract.sol:YourContract",
        "label": "topics",
        "offset": 0,
        "slot": "0",
        "type": "t_array(t_struct(Topic)19_storage)dyn_storage"
      },
      {
        "astId": 29,
        "contract": "contracts/YourContract.sol:YourContract",
        "label": "hasVoted",
        "offset": 0,
        "slot": "1",
        "type": "t_mapping(t_uint256,t_mapping(t_address,t_bool))"
      },
      {
        "astId": 32,
        "contract": "contracts/YourContract.sol:YourContract",
        "label": "nextTopicId",
        "offset": 0,
        "slot": "2",
        "type": "t_uint256"
      }
    ],
    "types": {
      "t_address": {
        "encoding": "inplace",
        "label": "address",
        "numberOfBytes": "20"
      },
      "t_array(t_string_storage)dyn_storage": {
        "base": "t_string_storage",
        "encoding": "dynamic_array",
        "label": "string[]",
        "numberOfBytes": "32"
      },
      "t_array(t_struct(Topic)19_storage)dyn_storage": {
        "base": "t_struct(Topic)19_storage",
        "encoding": "dynamic_array",
        "label": "struct YourContract.Topic[]",
        "numberOfBytes": "32"
      },
      "t_array(t_uint256)dyn_storage": {
        "base": "t_uint256",
        "encoding": "dynamic_array",
        "label": "uint256[]",
        "numberOfBytes": "32"
      },
      "t_bool": {
        "encoding": "inplace",
        "label": "bool",
        "numberOfBytes": "1"
      },
      "t_mapping(t_address,t_bool)": {
        "encoding": "mapping",
        "key": "t_address",
        "label": "mapping(address => bool)",
        "numberOfBytes": "32",
        "value": "t_bool"
      },
      "t_mapping(t_uint256,t_mapping(t_address,t_bool))": {
        "encoding": "mapping",
        "key": "t_uint256",
        "label": "mapping(uint256 => mapping(address => bool))",
        "numberOfBytes": "32",
        "value": "t_mapping(t_address,t_bool)"
      },
      "t_string_storage": {
        "encoding": "bytes",
        "label": "string",
        "numberOfBytes": "32"
      },
      "t_struct(Topic)19_storage": {
        "encoding": "inplace",
        "label": "struct YourContract.Topic",
        "members": [
          {
            "astId": 6,
            "contract": "contracts/YourContract.sol:YourContract",
            "label": "title",
            "offset": 0,
            "slot": "0",
            "type": "t_string_storage"
          },
          {
            "astId": 9,
            "contract": "contracts/YourContract.sol:YourContract",
            "label": "options",
            "offset": 0,
            "slot": "1",
            "type": "t_array(t_string_storage)dyn_storage"
          },
          {
            "astId": 12,
            "contract": "contracts/YourContract.sol:YourContract",
            "label": "voteCounts",
            "offset": 0,
            "slot": "2",
            "type": "t_array(t_uint256)dyn_storage"
          },
          {
            "astId": 14,
            "contract": "contracts/YourContract.sol:YourContract",
            "label": "creator",
            "offset": 0,
            "slot": "3",
            "type": "t_address"
          },
          {
            "astId": 16,
            "contract": "contracts/YourContract.sol:YourContract",
            "label": "topicId",
            "offset": 0,
            "slot": "4",
            "type": "t_uint256"
          },
          {
            "astId": 18,
            "contract": "contracts/YourContract.sol:YourContract",
            "label": "totalVotes",
            "offset": 0,
            "slot": "5",
            "type": "t_uint256"
          }
        ],
        "numberOfBytes": "192"
      },
      "t_uint256": {
        "encoding": "inplace",
        "label": "uint256",
        "numberOfBytes": "32"
      }
    }
  }
}